:100000000C94E7000C940F010C940F010C940F0159
:100010000C940F010C940F010C940F010C940F0120
:100020000C940F010C940F010C940F010C940F0110
:100030000C940F010C940F010C940F010C940F0100
:100040000C94801D0C940F010C9478200C94AA2021
:100050000C940F010C940F010C940F010C940F01E0
:100060000C941D1C0C940F01490646067A067A066C
:100070007A067A063E06B5063506B50652064606E7
:100080004C064906B506B506B506B506B506B5066D
:10009000B506B506B506B506B506B506B5065C06E1
:1000A000B5065C06B506B506B506B506B506B506D1
:1000B000B506B506B506B50649067A0649064906E7
:1000C000B5065C063506B506B506B506B506B50631
:1000D000B506B506B506B506A106A106A106A10698
:1000E000B506B50663064906AB0649064606490647
:1000F000490649064906490649065C065C06B506F6
:10010000B506B5064906B506B506B506B506B50683
:10011000B5065C06B5064906460690066B06B506AA
:10012000B506710671065C067C3C3E5E2B3D3F2F9A
:100130005B5D3B2C2A225C000000000800020100ED
:100140000003040700000000000000000102040892
:100150001020408001020408102001020408102031
:10016000040404040404040402020202020203035D
:100170000303030300000000250028002B000000FB
:100180000000240027002A004E414E494E49545990
:10019000494E46CDCCCC3D0AD7233C17B7D1387752
:1001A000CC2B329595E6241FB14F0A000020410068
:1001B00000C84200401C4620BCBE4CCA1B0E5AAEB2
:1001C000C59D74005901640BA90EF01BDA2011249F
:1001D0001FBECFEFD8E0DEBFCDBF12E0A0E0B1E0A0
:1001E000E0E4F3E502C005900D92A831B107D9F71C
:1001F00026E0A8E1B2E001C01D92A230B207E1F70B
:1002000011E0CEECD1E004C02297FE010E948723CA
:10021000C43CD107C9F70E9407220C949E290C9474
:10022000000060E082E00E94DB1EFFCF61E08DE015
:100230000E94A21E61E082E00E94A21E61E083E0B3
:100240000E94A21E61E084E00E94A21E61E082E0A2
:100250000E94DB1E61E083E00E94DB1E61E084E01F
:100260000E94DB1E6AE070E088E192E00E94D71AEB
:10027000811102C00E94110160E083E00C94DB1E3A
:10028000CF93DF9300D0CDB7DEB7AE014F5F5F4FA6
:10029000682F87E292E00E940302882319F0898187
:1002A0009A8102C08FEF9FEF0F900F90DF91CF9157
:1002B000089584E991E0909328028093270281E0D9
:1002C0008093290210922A0210923D0210923C0261
:1002D00008950F931F93CF93DF93CDB7DEB76B973E
:1002E0000FB6F894DEBF0FBECDBF8EE00E945C1E3D
:1002F0008C0168E172E0CE0101960E944C1B0E94C5
:10030000CA1DAB01BC012AE030E0CE0101960E947B
:10031000F92163E171E0CE0101960E9445214AE096
:1003200050E0B801CE0101960E94F12163E171E035
:10033000CE0101960E94452160912502709126020E
:100340004AE050E0CE0101960E94F1216AE0CE0120
:1003500001960E944721CE0101960E942208CE01FB
:1003600001960E9420096B960FB6F894DEBF0FBE6F
:10037000CDBFDF91CF911F910F9108958CE00E9426
:10038000400190932602809325020E94690162E356
:1003900070E080E090E00C94F91DFC01858996895D
:1003A00008950895CF92DF92EF92FF920F931F93DB
:1003B000CF93DF931F92CDB7DEB76C017A01DC01DA
:1003C000ED91FC9104A0F5A1E02D29830995D601BA
:1003D000ED91FC9106A0F7A1E02DC6010995D6018B
:1003E000ED91FC9102A0F3A1E02D98014981B701A4
:1003F000C6010F90DF91CF911F910F91FF90EF9069
:10040000DF90CF9009940F931F93CF93DF9300D089
:100410001F92CDB7DEB78C016983D801ED91FC91B5
:10042000028CF38DE02DC8014A835B830995D801C6
:10043000ED91FC91048CF58DE02D4A815B81BE012C
:100440006F5F7F4FC80109950F900F900F90DF915C
:10045000CF911F910F9108950F931F93CF93DF9327
:10046000CDB7DEB7A0970FB6F894DEBF0FBECDBFF5
:100470008C01DC01ED91FC9104A0F5A1E02D66E179
:1004800071E00995D801ED91FC9102A0F3A1E02D56
:1004900028EE33E040E2BE016F5F7F4FC80109954F
:1004A000A0960FB6F894DEBF0FBECDBFDF91CF91FF
:1004B0001F910F9108950F931F93CF93DF93CDB7A3
:1004C000DEB7A0970FB6F894DEBF0FBECDBFDC013C
:1004D000ED91FC910288F389E02D08E91AE320E20E
:1004E000AE014F5F5F4F6AE171E00995A0960FB6CC
:1004F000F894DEBF0FBECDBFDF91CF911F910F915A
:100500000895EF92FF920F931F93CF93DF93CDB790
:10051000DEB728970FB6F894DEBF0FBECDBF8C01B3
:100520001F926F93DC0112968C911F928F9380E241
:1005300091E09F938F93FE0131967F01FF92EF939D
:100540000E944F25D801ED91FC9104A0F5A1E02D6A
:10055000B701C80109950FB6F894DEBF0FBECDBF35
:1005600028960FB6F894DEBF0FBECDBFDF91CF91B6
:100570001F910F91FF90EF9008955F926F927F927D
:100580008F929F92AF92BF92CF92DF92EF92FF92A3
:100590000F931F93CF93DF93CDB7DEB7C358D10925
:1005A0000FB6F894DEBF0FBECDBF7C01772E842E30
:1005B000522E632E962EC62ED72E8E010F5F1F4F02
:1005C000B8018AE2A82E81E0B82E8C2D89198815F1
:1005D00058F5D6018D916D011F928F93F70182819D
:1005E0001F928F93BF92AF921F930F93CE57DF4FFF
:1005F0006883C258D040CD57DF4F7883C358D0406E
:100600000E944F25080F191F0FB6F894DEBF0FBECA
:10061000CDBFCD57DF4F7881C358D040CE57DF4F85
:100620006881C258D040D1CFD701ED91FC9104A090
:10063000F5A1E02DC7010995C52CD62C092D172D44
:10064000B12C802F89198815D0F4F80181918F0180
:10065000CF57DF4F8883C158D040D701ED91FC912F
:10066000048CF58DE02DA601BE016F577F4FC701A9
:1006700009958111B394B2E0CB0ED11CE2CF8B2D42
:10068000CD57DF4F0FB6F894DEBF0FBECDBFDF9161
:10069000CF911F910F91FF90EF90DF90CF90BF907F
:1006A000AF909F908F907F906F905F900895EF92A2
:1006B000FF920F931F93CF93DF93CDB7DEB7A09731
:1006C0000FB6F894DEBF0FBECDBF8C01CE010196F0
:1006D0007C016115710559F4D801ED91FC9104A0DC
:1006E000F5A1E02D65E371E0C801099519C07F937C
:1006F0006F938DE391E09F938F93FF92EF920E940F
:100700004F25D801ED91FC9104A0F5A1E02DB70192
:10071000C80109950F900F900F900F900F900F90B8
:10072000D801ED91FC9102A0F3A1E02D28E93AE374
:1007300040E2B701C8010995882341F065E471E002
:10074000C7010E942D2521E0892B09F420E0822F8A
:10075000A0960FB6F894DEBF0FBECDBFDF91CF914C
:100760001F910F91FF90EF9008950F931F93CF93D8
:10077000DF93CDB7DEB7A0970FB6F894DEBF0FBEFC
:10078000CDBFDC01ED91FC910288F389E02D08E9F1
:100790001AE320E2AE014F5F5F4F68E471E0099514
:1007A000882329F0CE0101960E94CC2403C060E08A
:1007B00070E0CB01A0960FB6F894DEBF0FBECDBFA0
:1007C000DF91CF911F910F910895FC01168A158A30
:1007D0008FE595E00C9456206F37C8F4EFEFE60FE5
:1007E0004E2F477020E830E002C0359527954A9596
:1007F000E2F7F0E033E0F595E7953A95E1F7E80F99
:10080000F91F9481922381E019F480E0089581E03A
:1008100008956115710581F0DB010D900020E9F765
:10082000AD0141505109461B570BDC01ED91FC9184
:100830000280F381E02D099480E090E008958FE537
:1008400095E00C940904FC01219130E080E090E0F7
:100850002223F1F03430E4F44FEB420F463010F431
:1008600027500CC04FE9420F463010F4275206C003
:10087000203261F040ED420F4A3050F444E0880FDE
:10088000991F4A95E1F72F70822B3F5F2191E0CFAE
:100890000895CB010C942304FC01208181819FEBFE
:1008A000920F963010F427500AC09FE9920F9630AD
:1008B00010F4275204C090ED920F9A30B8F49FEBD9
:1008C000980F963010F487500AC09FE9980F963021
:1008D00010F4875204C090ED980F9A3038F48F705E
:1008E000F0E12F9F90011124822B089580E008955C
:1008F000CB010E944C0424E6829FC00111246FEFBB
:1009000070E00E943023862F0895CB010C944C0494
:10091000CB010E944C0490E0889708959F92AF927B
:10092000BF92CF92DF92EF92FF920F931F93CF93DC
:10093000DF937C016B015A01922ED701ED91FC915E
:1009400002A0F3A1E02D28EE33E0492DB501C70147
:100950000995882321F1CA2DDB2D6EE471E0CE01CB
:100960000E942D258C01009741F3E8012396CE01CA
:100970000E944C04D6019C91911101C08C93F60108
:1009800090818913EACFD70113961C92E80125962E
:10099000F8018581803209F7C801069602C080E01F
:1009A00090E0DF91CF911F910F91FF90EF90DF903A
:1009B000CF90BF90AF909F9008950F931F93CF93C8
:1009C000DF93EB01242FDC01ED91FC910288F38988
:1009D000E02D08E91AE3AB0162E571E0099588238F
:1009E00019F168E571E0CE010E942D250097E1F034
:1009F0000A968C010F5F1F4FF8018081803251F4FD
:100A0000C80101960E944C048883811121960D5FD4
:100A10001F4FF2CF6AE370E0C8010E9403250097E0
:100A200041F7188281E001C080E0DF91CF911F91F2
:100A30000F9108959F92AF92BF92CF92DF92EF9263
:100A4000FF920F931F93CF93DF93CDB7DEB7C954B7
:100A5000D1090FB6F894DEBF0FBECDBF8C016B017C
:100A600088E0EBE0F1E0DE01AF5BBF4F01900D925B
:100A70008A95E1F781E090E0D80156969C938E9399
:100A80005597ED91FC9104A0F5A1E02D61E671E090
:100A9000C8010995D801ED91FC9102A0F3A1E02DC8
:100AA00024E630E040E4BE016F5F7F4FC801099546
:100AB0008823B1F066E671E0CE0101960E942D25F3
:100AC000009771F0FC01238520538185880F8056A3
:100AD000982F990F990F980F290FD80154962C939E
:100AE000F8018489811106C083E090E0968B858BA4
:100AF00080E093C07E01F1E4EF0EF11C570188E025
:100B0000A80EB11CD7016D917D917D01D801ED91A9
:100B1000FC9104A0F5A1E02DC8010995D801ED9143
:100B2000FC9102A0F3A1E02D28E93AE340E4BE01E4
:100B30006F5F7F4FC8010995811104C0F801168AC3
:100B4000158A6BC062E370E080E090E00E94F91DBE
:100B5000EA14FB04B9F6C114D10449F0D801ED91AF
:100B6000FC910088F189E02DB601C801099580E16A
:100B7000F8013496DF011D928A95E9F75801912C0E
:100B80002A969FAE2A97D801ED91FC91028CF38DA5
:100B9000E02D692DC8010995D801ED91FC9100A0C7
:100BA000F1A1E02D20E4AE014F5F5F4FBE01675B16
:100BB0007F4FC8010995009749F16C01E12CF12C98
:100BC000F60131978081803279F064E670E080E050
:100BD00090E00E94F91DB0E29B0EE4E0AE0EB11C65
:100BE000F0E89F12CDCF12C0C6010E944C04F5015F
:100BF000EE0DFF1D84838FEFE81AF80AA3E0CA0EFA
:100C0000D11CB4E0EB16F104D9F6DFCF82E090E01E
:100C1000F801968B858B138281E0C75BDF4F0FB69F
:100C2000F894DEBF0FBECDBFDF91CF911F910F9122
:100C3000FF90EF90DF90CF90BF90AF909F9008957E
:100C40000F931F93CF93DF93062FBA0110E0045048
:100C50001109DC01CD91DC910036110508F085C049
:100C60000C5C1F4FF8010C948523EAA5FBA50995A0
:100C7000BC0176956795769567957CC0ECA5FDA53A
:100C80000995F3E08F9FB001112474C0EEA5FFA574
:100C900015C0E8A5F9A56BC0EAA5FBA5099564E612
:100CA00070E016C0ECA5FDA509958695282F30E0CB
:100CB000B901605471095EC0EAA5FBA5DF91CF912F
:100CC0001F910F910994EAA5FBA5099568EE73E0C1
:100CD0000E9430234FC0EAA5FBA5099564E170E0AE
:100CE000F7CFECA5FDA50995282F30E0B9016D5788
:100CF000710940C0ECA5FDA5099590E080589109C7
:100D000044E6489F9001499F300D112437FF02C0EF
:100D100021583F4FB901660F672F661F770B2AC016
:100D2000EAA5FBA50995BC0180E090E07956810910
:100D3000910920E830E040E050E00E946623B901CC
:100D400019C0EAA5FBA509956AE070E00E9430236E
:100D5000685271090FC0EAA5FBA509959C01A8EC92
:100D6000B0E00E948B23BC0105C0ECA5FDA5099550
:100D7000682F70E0CB01DF91CF911F910F91089503
:100D80000F931F93CF93DF93CDB7DEB760970FB666
:100D9000F894DEBF0FBECDBFDC01ED91FC9102885F
:100DA000F389E02D08E91AE320E1AE014F5F5F4FC0
:100DB00065E871E0099560960FB6F894DEBF0FBE46
:100DC000CDBFDF91CF911F910F910895CF92DF9208
:100DD000EF92FF920F931F93CF93DF93CDB7DEB7C0
:100DE000C054D1090FB6F894DEBF0FBECDBF8C0141
:100DF0007B016A01DC01ED91FC9100A0F1A1E02DE5
:100E000020E4AE014F5F5F4F0995009749F4C80198
:100E10000E94C006F80183818F5F838380E00AC04F
:100E2000AC01D7016C91C8010E942006F6019183A4
:100E3000808381E0C05CDF4F0FB6F894DEBF0FBE49
:100E4000CDBFDF91CF911F910F91FF90EF90DF9079
:100E5000CF900895CF93DF93EC0126E040E056E970
:100E600060E070E08FE595E00E94F41FCE01DF9115
:100E7000CF910C94C006CF92DF92EF92FF92CF9366
:100E8000DF93EC016A017B0169E871E08FE595E091
:100E90000E9445212AE030E0B701A6018FE595E0E8
:100EA0000E94F9216DE08FE595E00E94472162E301
:100EB00070E080E090E00E94F91D8FE595E00E94CF
:100EC000562026E0B701A6018FE595E00E94F41FA9
:100ED000CE010E94C00681E0DF91CF91FF90EF909C
:100EE000DF90CF9008954F925F926F927F929F9282
:100EF000AF92BF92CF92DF92EF92FF920F931F9328
:100F0000CF93DF935C01EB01E42E69010E94CA1DBF
:100F10002B013C01912CF12C81E0E81AF1088FE5BE
:100F200095E00E94111F892B69F18FE595E00E94E1
:100F30002A1F92E0991510F48E33E9F1209701F100
:100F4000292D30E02E153F0554F78E32A9F4A2E08A
:100F5000A91590F4AE01420F531FFA013197908109
:100F60009E3251F4319790819E3231F4912CF8E900
:100F7000CF2EFAE3DF2ED3CFFE01E20FF31F8083E3
:100F80009394CDCF0E94CA1D6419750986099709EB
:100F90008601222717FD2095322F061717072807ED
:100FA000390748F0D501ED91FC9106A0F7A1E02D9D
:100FB000C5010995B4CF209719F0C90DD11D18822C
:100FC000892DDF91CF911F910F91FF90EF90DF90CE
:100FD000CF90BF90AF909F907F906F905F904F9019
:100FE0000895CF93DF931F92CDB7DEB76983DC01FD
:100FF000ED91FC910280F381E02D41E050E0BE01D3
:101000006F5F7F4F09950F90DF91CF910895CF9338
:10101000DF93EC01898D9A8D009759F0FC011382C2
:1010200012820E947C14E98DFA8D22813381232B58
:1010300031F081E090E09B838A8380E090E0DF9153
:10104000CF910895FC01818D928D009711F00C9441
:101050001C120895CF93DF931F92CDB7DEB741E006
:1010600050E0BE016F5F7F4F0E94F90F019719F4A6
:10107000898190E002C08FEF9FEF0F90DF91CF91B9
:101080000895FC01818D928D009711F00C942A082F
:101090008FEF9FEF08950F931F93CF93DF938C01F2
:1010A000FC01818D928D0097B9F00E942A08EC0115
:1010B0008F3FFFEF9F0799F0F801818D928DFC0122
:1010C00042855385648575854150510961097109CF
:1010D0000E948011CE0105C080E090E002C08FEF39
:1010E0009FEFDF91CF911F910F910895CF92DF92E3
:1010F000EF92FF920F931F93CF93DF93EC017B014D
:101100006A011B821A8208EE13E020E030E00C83B3
:101110001D832E833F8388EC91E0998388838DE142
:1011200090E00E94A5239A8F898F009779F02DE196
:10113000F701DC0101900D922A95E1F74CE050E0B7
:10114000B601CE010C960E941E25188EDF91CF911C
:101150001F910F91FF90EF90DF90CF900895FC01C9
:101160001382128248EE53E060E070E044835583BE
:101170006683778388EC91E091838083128E118E51
:10118000148608950C960895DC015996ED91FC9112
:101190005A97309721F081E09581923008F480E0F1
:1011A0000895DC015996ED91FC915A97309729F0FA
:1011B000628573858485958508956FEF7FEFCB01F8
:1011C0000895DC015996ED91FC915A97309729F0DA
:1011D0006389748985899689089560E070E0CB0100
:1011E0000895CF92DF92EF92FF92CF93DF93EC01BD
:1011F000898D9A8D892BD9F0CE010E94E1086B016F
:101200007C01CE010E94D108A7019601261B370B55
:10121000480B590BDA01C901811530E89307A10584
:10122000B10538F08FEF9FE7A0E0B0E002C080E0AA
:1012300090E0DF91CF91FF90EF90DF90CF900895F5
:10124000CF93DF93EC01898D9A8D009741F00E9436
:101250006312898D9A8D0E943D241A8E198EDF911A
:10126000CF910895DC015996ED91FC915A973097F2
:1012700021F081E09581911101C080E008950F93E4
:101280001F93CF93DF93EC01462F64E00E94A10CE3
:10129000811102C080E01DC08E01045F1F4F41E03C
:1012A000BE01C8010E94C319882359F0B801CE01BC
:1012B0008A960E94A90F91E0811101C090E0892FC8
:1012C00008C040E0BE01C8010E94C319882311F381
:1012D000EDCFDF91CF911F910F910895FC01DB01BC
:1012E00012968D919C911397938382838AED91E05E
:1012F0009183808314968C911497848315968C9196
:101300001597858316964D915D916D917C911997F6
:1013100046835783608771871A964D915D916D91D1
:101320007C911D9742875387648775871E964D91E0
:101330005D916D917C91519746875787608B718B3A
:1013400052968C915297828B53964D915D916D91EF
:101350007C915697438B548B658B768B57964D912A
:101360005D916D917C915A97478B508F618F728FF1
:101370005B968D919C915C97948F838F08954F928B
:101380005F926F927F928F929F92AF92BF92CF9215
:10139000DF92EF92FF920F931F93CF93DF93CDB71E
:1013A000DEB7C754D1090FB6F894DEBF0FBECDBF6C
:1013B0006C014A013901665D7F4F5E018EE1A80E26
:1013C000B11CC5010E946E091C821B828AED91E04E
:1013D0009A8389831E828401FE0131967F015A2CF3
:1013E0004B2C6FE270E0C8010E9403250097E9F1E1
:1013F000F80120812F3219F40F5F1F4FF2CF801BAD
:101400008D3008F08CE0A82EB12CA501B801CE01DA
:10141000CB960E941E25EBE3F0E0EC0FFD1FEA0DDA
:10142000FB1D1082C7010E94631221E0AE01455CE2
:101430005F4F652D742DC7010E949713811109C05C
:10144000F601138212828AED91E0918380831582E6
:1014500016C00A0D1B1D852D942D0E946312C2011A
:101460005E2C4F2CE92EF82EBCCF08191909F30178
:1014700011830083652D742DC6010E946E09C6017B
:10148000C95BDF4F0FB6F894DEBF0FBECDBFDF9153
:10149000CF911F910F91FF90EF90DF90CF90BF9071
:1014A000AF909F908F907F906F905F904F90089536
:1014B0009F92AF92BF92CF92DF92EF92FF920F93E3
:1014C0001F93CF93DF93CDB7DEB7C955D1090FB6C0
:1014D000F894DEBF0FBECDBF7C016B015A01922E86
:1014E0009E01285A3F4FCE01CB960E94BF096A96B3
:1014F0000EAD1FAD6A970A0D1B1DF8018081811189
:101500000AC0BE01655C7F4FCE0101960E946E0944
:1015100044ED51E041C019A218A28AED91E09F8FDD
:101520008E8F1BA221968FAD2197811104C0C70118
:101530000E94AF0837C08250823060F4B601665D09
:101540007F4F292DA801CE014E960E94971381113D
:1015500010C0EDCF292DA801BE01655C7F4FCE01E3
:101560004E960E949713882311F3CE01CB960E94CA
:101570006312892D867041F049A95AA96BA97CA9EB
:10158000CE014E960E948011BE01625E7F4FCE0159
:1015900001960E946E09A801BE016F5F7F4FC701CF
:1015A0000E947608C701C75ADF4F0FB6F894DEBF16
:1015B0000FBECDBFDF91CF911F910F91FF90EF90A4
:1015C000DF90CF90BF90AF909F900895DF92EF9201
:1015D000FF920F931F93CF93DF93CDB7DEB7C7561C
:1015E000D1090FB6F894DEBF0FBECDBF8C017B01D1
:1015F000D42EBE016F5F7F4FF701818D928D0E94C7
:1016000001111816D4F589818823B9F1853E89F333
:101610008E3279F38C8583FDECCF22961FAE1EAE01
:1016200022978AED91E09FAF8EAF24961FAE24974C
:10163000BE01655A7F4FCE0101960E94530FF701FC
:10164000618D728D2D2DAE01455A5F4FCE01CE9624
:101650000E949713882389F0BE01625C7F4FCE0100
:1016600081960E946E09AE01455A5F4FBE016F5DC3
:101670007F4FC8010E94760803C0C8010E94AF08CE
:10168000C801C959DF4F0FB6F894DEBF0FBECDBFFA
:10169000DF91CF911F910F91FF90EF90DF90089510
:1016A000CF93DF93EC010E94C408882351F0E98DA9
:1016B000FA8D16821782108611861286138614867A
:1016C0001586DF91CF910895109243021092440243
:1016D000109247021092490282E090E0A0E0B0E050
:1016E00080934A0290934B02A0934C02B0934D0218
:1016F0001092610210926B0210926A028AED91E0E0
:10170000909369028093680210926D0208959FB7CA
:10171000F8942091540580915205213019F48DBB25
:101720009FBF08958FBF089520915405222399F0FB
:101730003FB7F89420915405213059F42DB32093EC
:1017400052054DB320915305209524232DBB3FBF57
:1017500002C0309352058CBD9DBD08958EBD000022
:101760000DB407FEFDCF8EB508958FEF0C94AE0B30
:1017700061E0FC0184810E94DB1E80918702882346
:1017800039F0109287028091540581110C94870BD7
:101790000895CF93DF93EC0180918702811109C0F6
:1017A00081E08093870280918802909189020E9453
:1017B000940B60E08C81DF91CF910C94DB1ECF9372
:1017C000DF93EC018E81882389F08F8198859C01BD
:1017D0002F5F3F4F38872F838230924018F40E944A
:1017E000B50BF3CFCE010E94B80B1E82DF91CF91D3
:1017F0000895673028F026E1FC01258380E00895F4
:10180000623081F030F4662359F06130B1F480E544
:1018100015C0643059F040F0653079F482E50EC0AF
:1018200080E505C081E503C081E508C082E58093BD
:10183000880281E080938902089583E5809388027D
:101840001092890281E008950F931F93CF93DF9345
:10185000EB010E94CA1D8B010E94B50B8F3F49F01E
:101860000E94CA1D601B710B6C177D07A8F380E0F6
:1018700001C081E0DF91CF911F910F910895CF9228
:10188000DF92FF920F931F93CF93DF9300D000D08E
:10189000CDB7DEB76C01F62E29833A834B835C8388
:1018A0000E94DF0BC6010E94C90B6CE271E0C60109
:1018B0000E94240C8F2D80640E94AE0B08E110E082
:1018C0005C814B813A812981DA01C901002E04C073
:1018D000B695A795979587950A94D2F729833A8369
:1018E0004B835C830E94AE0B0850110929813A8119
:1018F0004B815C81083F8FEF180731F7FF2029F0FB
:10190000E8E0FE1621F08FEF03C085E901C087E80B
:101910000E94AE0B10E00E94B50BF601828787FF94
:1019200004C01F3F11F01F5FF6CF0F900F900F9074
:101930000F90DF91CF911F910F91FF90DF90CF908B
:101940000895BF92CF92DF92EF92FF920F931F9371
:10195000CF93DF93EC01B62E1B8619861E821D8263
:101960004C830E94CA1D8B0161E08C810E94A21EE3
:1019700061E08C810E94DB1E0E944A1D82E58093FB
:1019800088021092890280918802909189020E94B7
:10199000940B2AE0F22E8FEF0E94AE0BFA94D9F747
:1019A0008091540581110E94870BCE010E94C90BC2
:1019B00020E030E0A90160E0CE010E943F0CF82E4B
:1019C0008A8781E0F81649F00E94CA1D601B710BDE
:1019D000613D774068F381E04BC02AEA31E040E0A6
:1019E00050E068E0CE010E943F0C82FF02C0FB86FF
:1019F0000DC094E0F92E0E94B50B8A87FA94D9F7AE
:101A00008A3A11F082E034C082E08B878B85823085
:101A100031F4C12CD12CE12C80E4F82E03C0C12C70
:101A2000D12C760120E030E0A90167E3CE010E94CD
:101A30003F0CA701960169E2CE010E943F0C8A8704
:101A4000882349F00E94CA1D601B710B613D7740DD
:101A500048F388E00DC08B85823031F520E030E01E
:101A6000A9016AE3CE010E943F0C882381F086E041
:101A70008D83CE010E94B80B80E0DF91CF911F9142
:101A80000F91FF90EF90DF90CF90BF9008950E944C
:101A9000B50B807C803C11F483E08B870E94B50BF2
:101AA0000E94B50B0E94B50BCE010E94B80B6B2DA6
:101AB000CE01DF91CF911F910F91FF90EF90DF90BA
:101AC000CF90BF900C94F90B0F931F93CF93DF939C
:101AD000EC010E94CA1D8B010E94B50B8A878F3FC3
:101AE00049F40E94CA1D601B710B6D327140A0F356
:101AF0008FE003C08E3F39F08DE08D83CE010E94D0
:101B0000B80B80E001C081E0DF91CF911F910F9170
:101B10000895CF92DF92EF92FF920F931F93CF938E
:101B2000DF93EC0169010115110509F462C0C801D8
:101B3000820F931F8130924008F05DC08E81882310
:101B400071F088819981AA81BB81481759076A077A
:101B50007B0729F48F819885C816D90610F548832C
:101B600059836A837B838B85833039F039E0440F56
:101B7000551F661F771F3A95D1F79A01AB0161E1B6
:101B8000CE010E943F0C882319F083E08D8333C07F
:101B9000CE010E94640D882371F118861F8281E0B6
:101BA0008E838F8198858C159D0540F40E94B50B1E
:101BB0008F819885019698878F83F3CF6701E00E18
:101BC000F11ECE14DF0431F00E94B50BF6018193B3
:101BD0006F01F7CF8F819885800F911F98878F8332
:101BE0002985222319F08115924018F0CE010E9418
:101BF000DF0B81E004C0CE010E94B80B80E0DF91D2
:101C0000CF911F910F91FF90EF90DF90CF900895AB
:101C1000EF92FF920F931F93790100E012E020E012
:101C200030E00E94890D1F910F91FF90EF90089571
:101C3000CF92DF92EF92FF920F931F93CF93DF9398
:101C400000D0CDB7DEB78C01862F49835A830E941E
:101C5000AE0B4981C42E5A81D52EE12CF12CF60110
:101C600081916F010E94AE0BFFEFEF1AFF0AE114A2
:101C700082E0F806A1F78FEF0E94AE0B8FEF0E9473
:101C8000AE0B0E94B50BF80182878F71853039F059
:101C900081E18583C8010E94B80B80E001C081E02A
:101CA0000F900F90DF91CF911F910F91FF90EF90C8
:101CB000DF90CF9008950F931F93CF93DF93EC01A4
:101CC0008901411551056105710511F482E132C0A8
:101CD0008B85833039F089E0440F551F661F771FCD
:101CE0008A95D1F79A01AB0168E1CE010E943F0CC1
:101CF000882311F084E01EC0A8016EEFCE010E947F
:101D0000180E8823C1F068E572E0CE010E94240C11
:101D1000811102C085E10EC020E030E0A9016DE034
:101D2000CE010E943F0C811104C00E94B50B882394
:101D300039F084E18D83CE010E94B80B80E004C0AD
:101D4000CE010E94B80B81E0DF91CF911F910F91DE
:101D5000089580E580938802109289020895CF93B8
:101D6000DF93EC019C012A5F3F4F41E050E060E0CF
:101D700070E08B8D9C8D0E9458188823A1F04F89AC
:101D8000588D698D7A8D452B462B472B71F44E81EA
:101D90005F81688579854F8B588F698F7A8F8C81A9
:101DA00080688C8302C080E001C081E0DF91CF9128
:101DB0000895CF92DF92EF92FF921F93CF93DF931C
:101DC000EC010E94AF0E811102C080E04BC0EB8D90
:101DD000FC8DCE80DF80E884F98482E0C81AD108C7
:101DE000E108F108058404C0CC0CDD1CEE1CFF1CCE
:101DF0000A94D2F74685578560897189C40ED51E2D
:101E0000E61EF71E148181E0C81AD108E108F10826
:101E1000112361F0C701B601610F711D811D911D74
:101E20000E94A216882389F21150F2CFEB8DFC8D0F
:101E3000C12C82E0D82EE12CF12C058404C0CC0CFE
:101E4000DD1CEE1CFF1C0A94D2F74B895C896D895E
:101E50007E894C0D5D1D6E1D7F1D4B8B5C8B6D8BCC
:101E60007E8B81E0DF91CF911F91FF90EF90DF900B
:101E7000CF900895CF93DF93EC01462F6E857F8539
:101E8000888999890E946716882341F08A8920E20F
:101E9000829FC00111248D569D4F02C080E090E0CA
:101EA000DF91CF91089530E020E04EE2DC015C91BB
:101EB000503271F0383029F4FB01E20FF11D4083FC
:101EC0002F5FFB01E20FF11DDC015C9150832F5F5E
:101ED0003F5F01963B3051F7FB01E20FF11D10828D
:101EE0000895282FFB018BE030E231938150E9F710
:101EF000A22FB92F20E037E09D91992319F19E324E
:101F000019F0E8E2F1E008C03A3011F128E03AE0D7
:101F1000F3CF31964917E1F044914111FACF3217CE
:101F2000B8F04FED490F4E3598F441E0420FFB01F8
:101F3000E20FF11D2FE9290F2A3108F49052908306
:101F4000242FDACF81E0FB019081903209F480E008
:101F500008950F931F93CF93DF93EC018B018D8135
:101F6000882311F080E040C0FB0187898031B1F403
:101F700082E08D831F8A188E198E1A8E408D518DA6
:101F800060E070E095E0440F551F661F771F9A953B
:101F9000D1F74B8B5C8B6D8B7E8B15C0803211F72C
:101FA00083E08D83FB01428D538D648D758D4F8B46
:101FB000588F698F7A8F9E012D5E3F4FC8010E9416
:101FC0004C17882379F21C8F0B8F81E08C831E8243
:101FD0001F82188619861A861B861C861D861E86F9
:101FE0001F86188A198A1A8ADF91CF911F910F9143
:101FF00008952F923F924F925F926F927F928F92AD
:102000009F92AF92BF92CF92DF92EF92FF920F9387
:102010001F93CF93DF93EC016B015A018D818111E6
:1020200003C08FEF9FEFDAC08C8180FFFACF4B891E
:102030005C896D897E898A859B85AC85BD852501F6
:10204000612C712C8A019B01081B190B2A0B3B0B7D
:10205000041515052605370518F45A01A81AB90AFA
:1020600025011E0126E0220E311C4114510409F401
:102070007BC04A855B856C857D854A0181E098221D
:10208000ED818A019B01F9E0369527951795079513
:10209000FA95D1F78B8D9C8DE23051F4FC01628D65
:1020A000738D848D958D600F711F821F931F3EC0AD
:1020B000FC0174807A94702281149104C9F4711027
:1020C00017C0452B462B472B49F48F89988DA98D36
:1020D000BA8D8E839F83A887B9870AC04E815F819E
:1020E0006885798591010E94C816882309F499CFE3
:1020F000EB8DFC8D6E817F81888599856250710999
:1021000081099109058404C0660F771F881F991FF4
:102110000A94D2F70685178520893189600F711FCF
:10212000821F931F670D711D811D911D20E032E0FC
:102130002819390932012415350508F439012C8193
:1021400026FD04C06114F2E07F06A1F500910601AE
:102150001091070120910801309109016017710762
:102160008207930719F426C0C50138C076018301A0
:102170009401AB01BC0180919102909192020E9466
:10218000890D882309F44DCFC60CD71C04C0E81B69
:10219000F90BCE0EDF1E8A859B85AC85BD85860D2D
:1021A000971DA11DB11D8A879B87AC87BD874618E7
:1021B00057085BCF40E00E946716882309F431CFAF
:1021C000C4018D569D4FD6019C01260D371DFC0183
:1021D000E217F307E1F241914D93FACFDF91CF91EE
:1021E0001F910F91FF90EF90DF90CF90BF90AF9035
:1021F0009F908F907F906F905F904F903F902F9027
:1022000008950F931F93CF93DF93EC018B018D8182
:10221000823010F48FEF24C04A855B856C857D8504
:102220004F71552766277727452B462B472B91F76C
:1022300040E250E0B801CE010E94F90F803269F40B
:10224000F8018081882359F0853E91F38E3281F325
:10225000838583FDEDCF80E203C087FDDBCF80E087
:10226000DF91CF911F910F910895FF920F931F93CC
:10227000CF93DF931F92CDB7DEB78C01FC01858130
:10228000823018F480E090E034C0F8014285538534
:1022900064857585A5E07695679557954795AA95C8
:1022A000D1F7F42FFF70FF2E41E050E0BE016F5FC9
:1022B0007F4FC8010E94F90F019719F4298130E07E
:1022C00002C02FEF3FEF2F3F3F4FE1F2F801428571
:1022D000538564857585415E5F4F6F4F7F4F4287A1
:1022E000538764877587F0E2FF9EC00111248D56E5
:1022F0009D4F0F90DF91CF911F910F91FF90089507
:102300004F925F926F927F92AF92BF92CF92DF9285
:10231000EF92FF920F931F93CF93DF93EC016A012B
:102320007B012D81222309F457C08B899C89AD89BB
:10233000BE8984179507A607B70708F44DC04EC09D
:102340008A859B85AC85BD85EB8DFC8DE585F0E0B0
:102350003996AC01BD0141505109610971090E2E38
:1023600004C076956795579547950A94D2F79701DB
:102370008601015011092109310904C036952795BC
:1023800017950795EA95D2F704171507260737071B
:10239000B0F58F89988DA98DBA8D8E839F83A8877C
:1023A000B987280139015E0186E0A80EB11C4114ED
:1023B00051046104710461F14E815F816885798502
:1023C00095018B8D9C8D0E94C81691E0491A510889
:1023D000610871088111EBCF80E01FC02230C1F08D
:1023E000C114D104E104F10409F0AACF1E821F82B6
:1023F000188619861A861B861C861D860DC0892B99
:102400008A2B8B2B31F2041B150B260B370BC9CFF4
:10241000CA86DB86EC86FD8681E0DF91CF911F9135
:102420000F91FF90EF90DF90CF90BF90AF907F9093
:102430006F905F904F9008950F931F93CF93DF930A
:10244000EC018D818823C9F18C8187FF30C061E068
:10245000CE010E943A0F8C01009779F18D81823074
:1024600048F44B895C896D897E89F801448F558FCA
:10247000668F778F4F89588D698D7A8DF801538FCC
:10248000428F758B648BE0918A02F0918B023097BA
:1024900059F0B8016A5E7F4FC80148960995F80166
:1024A000808D918D938B828B8C818F778C83DF9144
:1024B000CF911F910F910C942C1680E0DF91CF915A
:1024C0001F910F910895CF93DF93EC010E941C128E
:1024D000882319F01D8281E001C080E0DF91CF9157
:1024E00008954F925F926F927F92AF92BF92CF9278
:1024F000DF92EF92FF920F931F93CF93DF9300D061
:1025000000D0CDB7DEB75C016A017B01FC0185819B
:102510008130F1F4848181FF1BC0F50183899489A6
:10252000A589B68984179507A607B70788F0892B70
:102530008A2B8B2B09F479C0F5014284538464847F
:102540007584B701A601C5010E948011811102C0E6
:1025500080E06CC0F501838D948DC114D104E10439
:10256000F10471F44789508D618D728D0E946D194F
:10257000882371F3F501178A108E118E128E3AC0DE
:10258000F50146815781608571859E012F5F3F4F20
:102590000E94C8168823E1F249815A816B817C81AF
:1025A000F501838D948DFC012789203129F408EFF2
:1025B0001FEF20E030E004C008EF1FEF2FEF3FE0F7
:1025C0004017510762077307A8F40E946D1988230A
:1025D00009F4BECFF50146815781608571850FEF03
:1025E0001FEF2FEF3FE0838D948D0E94B717882354
:1025F00009F4AECFF501C38AD48AE58AF68A8481CC
:1026000080688483C5010E941C12882309F4A0CF2E
:10261000B701A6014C145D046E047F0410F4B301ED
:10262000A201C5010E94801101C081E00F900F90AE
:102630000F900F90DF91CF911F910F91FF90EF902E
:10264000DF90CF90BF90AF907F906F905F904F9052
:102650000895FF920F931F93CF93DF93EC01F42E15
:1026600080E2689FF0011124ED56FD4F8385817152
:1026700029F0842F827411F080E053C06A8B80911E
:10268000060190910701A0910801B09109018E8780
:102690009F87A88BB98B4489558960E070E0BA01A7
:1026A00055274427028D138D20E030E0402B512B1D
:1026B000622B732B4F8B588F698F7A8F838588712C
:1026C00051F4048D158D268D378D0B8B1C8B2D8B26
:1026D0003E8B81E00CC0803179F69E012D5E3F4F2C
:1026E0008B8D9C8D0E944C17882331F284E08D8362
:1026F0008F2D8F708C831E821F82188619861A86F2
:102700001B861C861D86F6FE0BC040E050E0BA0119
:10271000CE01DF91CF911F910F91FF900C94711218
:1027200081E0DF91CF911F910F91FF900895AF92BB
:10273000BF92CF92DF92EF92FF920F931F93CF93AE
:10274000DF93CDB7DEB72B970FB6F894DEBF0FBE81
:10275000CDBF7C016B01CA01B22EF7012581211189
:10276000B9C0BE016F5F7F4F0E94710F882309F4CB
:10277000B1C0F601838D948DF701948F838FF6019C
:102780001682178210861186128613861486158685
:10279000A12CF601028513852485358583899489CA
:1027A000A589B689081719072A073B07E8F545E008
:1027B00036952795179507954A95D1F70F70C6015D
:1027C0000E943511009709F485C0FC012081222365
:1027D00011F0253EB9F4A1100EC0F701028B409113
:1027E0000601509107016091080170910901468727
:1027F0005787608B718BFC018081AA24A39481117F
:10280000C8CF12C04BE050E0BC01CE0101960E943F
:10281000F624892B09F0BDCF8B2D8073803309F40A
:1028200059C04B2D602F52C08B2D8271823109F01F
:1028300051C0AA2041F061E0C7010E943A0F8C010B
:10284000009779F447C0F6018581823009F442C0CF
:10285000C6010E94D90E8823E9F1F701128A03E923
:1028600012E080E2F80111928A95E9F78BE0FE010F
:102870003196D80101900D928A95E1F7E0918A0294
:10288000F0918B02309739F0B801625F7F4FC80139
:102890004096099509C081E298E2F801918B808BFE
:1028A00080E098E097878687F80180899189938BEB
:1028B000828B918F808F86859785978B868B0E94E0
:1028C0002C16882339F04B2DF7016289C7010E942D
:1028D000291301C080E02B960FB6F894DEBF0FBE1F
:1028E000CDBFDF91CF911F910F91FF90EF90DF90BF
:1028F000CF90BF90AF9008952F923F924F925F92EA
:102900006F927F928F929F92AF92BF92CF92DF92FF
:10291000EF92FF920F931F93CF93DF9300D000D0DD
:102920001F92CDB7DEB78C017B013A01DC01159611
:102930008C9115978130C9F414968C9181FF15C044
:1029400082FF1BC0F8014389548965897689828595
:102950009385A485B58584179507A607B70769F001
:10296000C8010E948011811108C081E090E0F80147
:102970009383828380E090E046C1630180C0D801E8
:102980005B968D919C915C97FC01F481F150B501AF
:10299000A40129E076956795579547952A95D1F733
:1029A000F423FD8321E09222FF2309F474C080E028
:1029B00092E08819990956018C159D0508F45C016F
:1029C000D8015B96ED91FC915C9716962D903D9009
:1029D0004D905C901997B2E02B1A310841085108CC
:1029E000058404C0220C331C441C551C0A94D2F7E5
:1029F00086859785A089B189280E391E4A1E5B1EDF
:102A0000ED812E0E311C411C511CA114F2E0BF06B9
:102A100009F088C08091060190910701A0910801FA
:102A2000B091090182159305A405B50559F48FEFFE
:102A30009FEFDC018093060190930701A0930801AA
:102A4000B09309019701B201A10180919102909187
:102A500092020E945B0E882309F487CF9EEFF91A39
:102A6000CA18DB08F80182859385A485B5858A0D8F
:102A70009B1DA11DB11D82879387A487B587D801AF
:102A80001A968D909D90AD90BC901D97C114D10465
:102A900009F075CF8AC08114910409F088CF169689
:102AA0004D915D916D917C9119974115510561058D
:102AB000710559F457968D919D910D90BC91A02D63
:102AC0000097A105B10541F521C09E012F5F3F4F41
:102AD0000E94C816882309F44ECF89819A81AB8160
:102AE000BC81F801238D348DF9012789203129F427
:102AF00048EF5FEF60E070E004C048EF5FEF6FEF1A
:102B00007FE084179507A607B70730F0C8010E9439
:102B1000AF0E81114CCF29CFF80186839783A08710
:102B2000B18745CF8114910429F5D8011A964D91AA
:102B30005D916D917C911D9753968D919D910D9016
:102B4000BC91A02D481759076A077B0798F00E948F
:102B50002C16882309F409CF209206013092070130
:102B60004092080150920901809190028160809307
:102B7000900208C041E0C201B1010E94671688239B
:102B800009F4F3CEC4018D569D4FD7019C012A0D47
:102B90003B1DFC01E217F30719F04D914193FACF69
:102BA000E81BF90BEE0EFF1E5BCF53968D919D91A6
:102BB0000D90BC91A02DF801248188159905AA05D6
:102BC000BB0538F4838A948AA58AB68A2068248350
:102BD0000CC080918A0290918B02892B31F0611494
:102BE000710419F02068F8012483D80114968C919F
:102BF00083FD02C0C30107C0C8010E941C128823C4
:102C000009F4B3CEF7CF0F900F900F900F900F9065
:102C1000DF91CF911F910F91FF90EF90DF90CF90B8
:102C2000BF90AF909F908F907F906F905F904F90EC
:102C30003F902F900895CF93DF931F92CDB7DEB7CB
:102C4000698341E050E0BE016F5F7F4F0E947C14BA
:102C50000F90DF91CF91089580919002882399F190
:102C6000409106015091070160910801709109019E
:102C700023E932E080919102909192020E945B0ED2
:102C8000882319F140918C0250918D0260918E023F
:102C900070918F02411551056105710591F023E98D
:102CA00032E080919102909192020E945B0E882303
:102CB00061F010928C0210928D0210928E0210928E
:102CC0008F021092900281E0089580E00895CF92E3
:102CD000DF92EF92FF92CF936B017C01C42F809122
:102CE000060190910701A0910801B09109018C158E
:102CF0009D05AE05BF05D1F00E942C16811102C0C2
:102D000080E01AC023E932E0B701A6018091910268
:102D1000909192020E94080E882391F3C0920601BE
:102D2000D0920701E0920801F0920901809190028F
:102D30008C2B8093900281E0CF91FF90EF90DF90F9
:102D4000CF900895CF92DF92EF92FF926B017C01BA
:102D50000E942C168823B1F0E3E9F2E0119284E09E
:102D6000E339F807D9F7C0920601D0920701E09243
:102D70000801F09209018091900281608093900295
:102D800081E001C080E0FF90EF90DF90CF90089548
:102D90008F929F92AF92BF92CF92DF92EF92FF926B
:102DA0000F931F93CF93DF938C016A017B01E9019D
:102DB000FC0181859285A385B4850196A11DB11D75
:102DC00084179507A607B70710F480E058C0F801EC
:102DD00043895489658976898789803129F4BB279D
:102DE000AF2D9E2D8D2D09C0D701C60127E0B695C8
:102DF000A795979587952A95D1F74C015D01840E8B
:102E0000951EA61EB71EC501B401809006019090C4
:102E10000701A0900801B0900901681579058A059D
:102E20009B0589F4F8018789803199F4DD24EE242B
:102E3000FF24F601EE0FFF1FED56FD4F80819181BB
:102E4000A0E0B0E017C040E00E9467168111EACF11
:102E5000BCCFE894C7F8DD24EE24FF24F601EE0F82
:102E6000FF1FEE0FFF1FED56FD4F80819181A28164
:102E7000B381BF7088839983AA83BB8381E0DF918C
:102E8000CF911F910F91FF90EF90DF90CF90BF9067
:102E9000AF909F908F9008954F925F926F927F9224
:102EA000AF92BF92CF92DF92EF92FF920F931F9358
:102EB000CF93DF9300D000D0CDB7DEB78C0149832C
:102EC0005A836B837C835901C12CD12C7601412C10
:102ED00042E0542E612C712C49815A816B817C8196
:102EE0009E012F5F3F4FC8010E94C816882359F1E9
:102EF000D301C201F801058404C0880F991FAA1FDD
:102F0000BB1F0A94D2F7C80ED91EEA1EFB1E4981C8
:102F10005A816B817C818789803129F488EF9FEF0A
:102F2000A0E0B0E004C088EF9FEFAFEFBFE048172C
:102F300059076A077B0780F2F501C082D182E282DD
:102F4000F38281E001C080E00F900F900F900F900E
:102F5000DF91CF911F910F91FF90EF90DF90CF9075
:102F6000BF90AF907F906F905F904F9008954F9279
:102F70005F926F927F928F929F92AF92BF92CF9209
:102F8000DF92EF92FF920F931F93CF93DF93EC01A9
:102F90006A017B0128013901423051056105710543
:102FA00008F474C049855A856B857C854F5F5F4FF7
:102FB0006F4F7F4F4C155D056E057F0508F466C0A9
:102FC0008B889C88AD88BE888F89803129F47727CB
:102FD0006F2D5E2D4D2D09C0B701A601E7E0769556
:102FE000679557954795EA95D1F7840E951EA61ECD
:102FF000B71E409106015091070160910801709140
:10300000090184169506A606B70671F48F898031EA
:1030100099F4DD24EE24FF24F601EE0FFF1FED5698
:10302000FD4F5182408218C040E0C501B4010E94AA
:1030300067168111EBCF2AC0E894C7F8DD24EE248F
:10304000FF24F601EE0FFF1FEE0FFF1FED56FD4FA1
:10305000408251826282738280919002816080936B
:1030600090028A89823080F08D819E81AF81B885FF
:10307000880D991DAA1DBB1D80938C0290938D0213
:10308000A0938E02B0938F0281E001C080E0DF91B7
:10309000CF911F910F91FF90EF90DF90CF90BF9055
:1030A000AF909F908F907F906F905F904F9008951A
:1030B0002F923F924F925F926F927F929F92AF9228
:1030C000BF92CF92DF92EF92FF920F931F93CF9315
:1030D000DF93CDB7DEB760970FB6F894DEBF0FBEB3
:1030E000CDBF5C014D875E876F87788B1901D90151
:1030F0004D905D906D907C90411451046104710479
:1031000031F0BFEF4B1A5B0A6B0A7B0A10C0FC015F
:103110004080518062807380992493940D851E8530
:103120002F853889013011052105310509F0912CD1
:10313000D50119962D913D914D915C911C972F5F72
:103140003F4F4F4F5F4F29873A874B875C8773010B
:1031500062011D821E821F821886F501818592857B
:10316000A385B4850D811E812F8138850817190725
:103170002A073B0708F056C029853A854B855C85B0
:103180002C153D054E055F0550F4A2E0CA2ED12C4A
:10319000E12CF12CB2E04B2E512C612C712C9E01B4
:1031A0002F5F3F4FB701A601C5010E94C8168823B3
:1031B000C9F149815A816B817C81D701C601019691
:1031C000A11DB11D452B462B472B19F02C013D01AC
:1031D0000FC0AC01BD0144195509660977090D8579
:1031E0001E852F853889401751076207730779F0CC
:1031F0002D813E814F8158852F5F3F4F4F4F5F4F4D
:103200002D833E834F8358876C017D01A6CF0FEF3E
:103210001FEF2FEF3FE0B701A601C5010E94B717CE
:10322000811118C080E041C0D701C6010197A109F2
:10323000B1098D839E83AF83B88797018601AC0166
:10324000BD01C5010E94B717882361F3CD80DE80E0
:10325000EF80F8844C145D046E047F0428F3D101E0
:103260004D915D916D917C914115510561057105FF
:1032700099F4F10140825182628273829920A1F017
:10328000FFEF4F1A5F0A6F0A7F0AD5014D925D92D8
:103290006D927C92139708C093018201C5010E9430
:1032A000B7178111E6CFBECF81E060960FB6F894D4
:1032B000DEBF0FBECDBFDF91CF911F910F91FF9069
:1032C000EF90DF90CF90BF90AF909F907F906F90E6
:1032D0005F904F903F902F900895AF92BF92CF9202
:1032E000DF92EF92FF920F931F93CF93DF9300D063
:1032F00000D0CDB7DEB75C016A017B0182E090E0CF
:10330000A0E0B0E0F50180839183A283B3839E01A6
:103310002F5F3F4FB701A601C5010E94C816882341
:1033200011F100E010E09801B701A601C5010E946B
:10333000B7178823C1F0C980DA80EB80FC80F501E3
:103340008789803129F488EF9FEFA0E0B0E004C0C6
:1033500088EF9FEFAFEFBFE0C816D906EA06FB067D
:10336000B0F281E001C080E00F900F900F900F90BD
:10337000DF91CF911F910F91FF90EF90DF90CF9051
:10338000BF90AF9008958F929F92AF92BF92CF92CD
:10339000DF92EF92FF920F931F93CF93DF93EC0195
:1033A000142F7093920260939102442341F14530AF
:1033B00010F080E0EFC040E060E070E0CB010E94E0
:1033C00067168823B1F320E1129FF0011124EF5B0F
:1033D000FB4F80818F7769F784859585A685B785B2
:1033E00084369105A105B10520F3C084D184E2841F
:1033F000F384C114D104E104F10421F4DACFC12C27
:10340000D12C760140E0C701B6010E9467168823DF
:1034100081F280919E0290919F028115924049F61F
:103420003091A302332329F28091A1029091A2024C
:10343000892B09F4BECF2091A002222309F4B9CF31
:103440003A8B2C831D8630E041E050E06D85062FDD
:10345000CA01062E02C0880F991F0A94E2F72817A6
:10346000390731F081E0860F8D87683078F3A1CF7E
:103470002091A9023091AA022115310519F040E0EE
:1034800050E008C02091B7023091B8024091B902D3
:103490005091BA022D833E834F8358878091A102B9
:1034A0009091A20246015701880E991EA11CB11CE1
:1034B0008B8A9C8AAD8ABE8AE091A402F091A50213
:1034C000F98FE88FA091A302B0E00E949A23680DC3
:1034D000791D8A1D9B1D6A8F7B8F8C8F9D8F15E0B8
:1034E000EE0FFF1F1A95E1F7E150FE4FEF2FFF2778
:1034F000E695DC01CB018E0F9F1FA11DB11D8E87AC
:103500009F87A88BB98B8090A6029090A702811408
:10351000910419F0A12CB12C08C08090B3029090B6
:10352000B402A090B502B090B602A7019601281B84
:10353000390B4A0B5B0BDA01C901880D991DAA1DD5
:10354000BB1D04C0B695A795979587950A95D2F7A8
:1035500089879A87AB87BC87853F3FE09307A105A2
:10356000B10510F48CE014C0853F9F4FA105B10553
:1035700010F480E10DC08091BF029091C002A09133
:10358000C102B091C2028A8F9B8FAC8FBD8F80E247
:103590008F8B81E0DF91CF911F910F91FF90EF9082
:1035A000DF90CF90BF90AF909F908F9008950F9332
:1035B0001F93CF93DF93CDB7DEB7E6970FB6F8949E
:1035C000DEBF0FBECDBF182F092F8EE392E00E9401
:1035D0003F09882309F455C021E044ED51E06EE332
:1035E00072E0CE014C960E94580ACE014C960E9481
:1035F000500B41E0BE01645E7F4FCE0101960E94F8
:10360000E60ACE0101960E9432098823F9F0CE0124
:1036100001960E94C408811114C0CE0101960E9437
:10362000C2086EED71E00E940E25181619064CF4C2
:10363000CE0101960E94C208BC018EED91E00E946D
:103640001725CE0101960E942009D3CFCE014C96BA
:103650000E9420091092E60182EE91E00E94D0249F
:1036600001969F938F932BEE31E03F932F930F930F
:103670001F930E944F250F900F900F900F900F9067
:103680000F90E6960FB6F894DEBF0FBECDBFDF9168
:10369000CF911F910F910895CF93DF93EC01AB0170
:1036A00023E16EE372E00E94580ACE01DF91CF91D0
:1036B00008958091C20490E02091C304821B910977
:1036C00008952091C3048091C204281750F4E22F7A
:1036D000F0E0EC53FB4F808190E02F5F2093C30418
:1036E00008958FEF9FEF0895E091C3048091C20485
:1036F000E81730F4F0E0EC53FB4F808190E0089540
:103700008FEF9FEF08950895CF92DF92EF92FF928F
:103710000F931F93CF93DF937C01CB018A012091FC
:103720009F04222389F0EB016B01C40ED51ECC153A
:10373000DD0569F06991D701ED91FC910190F0816F
:10374000E02DC7010995F3CF642F0E94F41BC80137
:10375000DF91CF911F910F91FF90EF90DF90CF906D
:103760000895CF93DF931F92CDB7DEB76983209181
:103770009F042223D1F02091A004203240F021E0C8
:1037800030E0FC013383228380E090E015C080911B
:10379000A104E82FF0E0EE55FB4F998190838F5FF5
:1037A0008093A1048093A00405C061E0CE0101963E
:1037B0000E94F41B81E090E00F90DF91CF9108957B
:1037C000FC011382128248EE53E060E070E0448313
:1037D0005583668377838CEF91E09183808308958E
:1037E00083E994E00C94E01B613298F42091510538
:1037F000243089F460930605FC0188E095E0DC0143
:103800002A2F281B261718F421912D93F9CF80E039
:10381000089581E0089582E0089585ED8093BC00CD
:103820008091BC0084FDFCCF10925105089585EC79
:103830008093BC001092510508951F920F920FB60D
:103840000F9211242F933F934F935F936F937F9326
:103850008F939F93AF93BF93EF93FF938091B900A2
:10386000887F803609F49EC078F5883209F45DC0FF
:1038700090F4803109F456C038F4882309F4F5C077
:10388000883009F44FC0F5C0883109F44EC0803249
:1038900009F45FC0EEC0803409F46AC058F4803384
:1038A00009F457C0883309F0E4C08093E4040E940F
:1038B000171CDFC0803509F44FC0883509F45DC09E
:1038C000883409F0D6C0D3C0883909F4C4C0A8F43C
:1038D000883709F467C038F4883609F463C0803744
:1038E00009F460C0C6C0883809F4B5C0803909F44D
:1038F0005FC0803809F0BDC05BC0803B09F483C065
:1039000038F4803A09F466C0883A09F47CC0B1C042
:10391000803C09F4A4C0883C09F4A1C0883B09F4A8
:1039200087C0A7C08091500510C090912905809153
:103930002805981770F5E091290581E08E0F809396
:103940002905F0E0E65DFA4F80818093BB0085ECAD
:1039500083C08093E4048BC0E091290581E08E0F41
:10396000809329058091BB00F0E0E65DFA4F8083EB
:1039700090912905809128056BC0E091290581E08F
:103980008E0F809329058091BB00F0E0E65DFA4F31
:10399000808380914F0581116AC081E080934E053C
:1039A00084EA5EC083E0809351051092E504CFCF96
:1039B0008091E504803208F04EC0E091E50481E09A
:1039C0008E0F8093E5048091BB00F0E0EA51FB4F3D
:1039D0008083BDCF0E94171C8091E504803230F4B3
:1039E000E091E504F0E0EA51FB4F10826091E504BC
:1039F00070E0E0914A05F0914B0586EE94E0099560
:103A00001092E50436C084E08093510510920705BA
:103A100010920605E0914C05F0914D0509958091B5
:103A20000605811105C081E0809306051092080506
:103A3000E091070581E08E0F80930705F0E0E85FD5
:103A4000FA4F80818093BB00909107058091060515
:103A5000981708F47CCF85E88093BC000AC085ECF9
:103A60008093BC001092510504C01092E4040E949F
:103A70000D1CFF91EF91BF91AF919F918F917F911D
:103A80006F915F914F913F912F910F900FBE0F90CB
:103A90001F901895CF93CFB7F89480915505811159
:103AA00027C0EAE6F1E08491E6E5F1E09491E82FA1
:103AB000F0E0EE0FFF1FE258FE4FA591B4918C91FC
:103AC000892321F461E08AE00E94DB1E61E08AE044
:103AD0000E94A21E8CB580618CBD8CB580648CBDAB
:103AE00061E08DE00E94A21E61E08BE00E94A21EB8
:103AF000809155058F5F80935505CFBFCF91089575
:103B00001F920F920FB60F9211242F933F938F9312
:103B10009F93AF93BF938091570590915805A091C3
:103B20005905B0915A053091560523E0230F2D37E2
:103B300020F40196A11DB11D05C026E8230F0296B1
:103B4000A11DB11D209356058093570590935805EC
:103B5000A0935905B0935A0580915B0590915C053F
:103B6000A0915D05B0915E050196A11DB11D8093E8
:103B70005B0590935C05A0935D05B0935E05BF91D6
:103B8000AF919F918F913F912F910F900FBE0F900A
:103B90001F9018952FB7F8946091570570915805AC
:103BA0008091590590915A052FBF08953FB7F89419
:103BB00080915B0590915C05A0915D05B0915E05DB
:103BC00026B5A89B05C02F3F19F00196A11DB11D78
:103BD0003FBF6627782F892F9A2F620F711D811D95
:103BE000911D42E0660F771F881F991F4A95D1F7F4
:103BF0000895CF92DF92EF92FF92CF93DF936B0104
:103C00007C010E94D61DEB01C114D104E104F10432
:103C100089F00E9416220E94D61D6C1B7D0B683E07
:103C2000734090F381E0C81AD108E108F108C85147
:103C3000DC4FEACFDF91CF91FF90EF90DF90CF90F4
:103C40000895789484B5826084BD84B5816084BD14
:103C500085B5826085BD85B5816085BDEEE6F0E005
:103C6000808181608083E1E8F0E010828081826061
:103C70008083808181608083E0E8F0E080818160E2
:103C80008083E1EBF0E0808184608083E0EBF0E012
:103C9000808181608083EAE7F0E0808184608083B6
:103CA0008081826080838081816080838081806860
:103CB00080831092C10008958E3008F08E50877076
:103CC00020910A0190E4299F90011124822B809376
:103CD0007C0080917A00806480937A0080917A00E1
:103CE00086FDFCCF809178002091790090E0922BA6
:103CF0000895833081F028F4813099F08230A1F06A
:103D000008958730A9F08830B9F08430D1F48091DB
:103D100080008F7D03C0809180008F77809380002A
:103D2000089584B58F7702C084B58F7D84BD0895D2
:103D30008091B0008F7703C08091B0008F7D809319
:103D4000B0000895CF93DF9390E0FC01E45BFE4F59
:103D50002491FC01E05AFE4F8491882349F190E0C0
:103D6000880F991FFC01E258FE4FA591B4918C5821
:103D70009E4FFC01C591D4919FB7611108C0F89482
:103D80008C91209582238C93888182230AC0623093
:103D900051F4F8948C91322F309583238C93888141
:103DA000822B888304C0F8948C91822B8C939FBFC4
:103DB000DF91CF9108950F931F93CF93DF931F92BD
:103DC000CDB7DEB7282F30E0F901E85CFE4F8491D3
:103DD000F901E45BFE4F1491F901E05AFE4F0491A2
:103DE0000023C9F0882321F069830E94791E69812C
:103DF000E02FF0E0EE0FFF1FEC58FE4FA591B491BD
:103E00009FB7F8948C91611103C01095812301C074
:103E1000812B8C939FBF0F90DF91CF911F910F91BA
:103E20000895FC01818D228D90E0805C9F4F821B64
:103E300091098F7399270895FC01918D828D9817B0
:103E400031F0828DE80FF11D858D90E008958FEFA0
:103E50009FEF0895FC01918D828D981761F0828DFE
:103E6000DF01A80FB11D5D968C91928D9F5F9F73AE
:103E7000928F90E008958FEF9FEF089580ED90E28C
:103E8000892B49F080E090E0892B29F00E94D02016
:103E900081110C9400000895FC01848DDF01A80FAE
:103EA000B11DA35ABF4F2C91848D90E001968F7362
:103EB0009927848FA689B7892C93A089B1898C9181
:103EC00080648C93938D848D981306C00288F38947
:103ED000E02D80818F7D80830895CF93DF93EC0167
:103EE000888D8823C9F0EA89FB89808185FD05C01A
:103EF000A889B9898C9186FD0FC00FB607FCF5CF54
:103F0000808185FFF2CFA889B9898C9185FFEDCF9B
:103F1000CE010E944C1FE7CFDF91CF910895CF9241
:103F2000DF92FF920F931F93CF93DF931F92CDB732
:103F3000DEB76C0181E0D60158968C9358975B965A
:103F40009C915B975C968C915C97981307C05096F8
:103F5000ED91FC915197808185FD2EC0F601038D76
:103F600010E00F5F1F4F0F731127F02EF601848DA5
:103F7000F81211C00FB607FCF9CFD6015096ED919B
:103F8000FC915197808185FFF1CFC60169830E9422
:103F90004C1F6981EBCF838DE80FF11DE35AFF4F72
:103FA0006083D6015B960C935B975296ED91FC91E2
:103FB0005397808180620CC0D6015696ED91FC919A
:103FC000579760835096ED91FC9151978081806462
:103FD000808381E090E00F90DF91CF911F910F914E
:103FE000FF90DF90CF900895BF92CF92DF92EF9233
:103FF000FF92CF93DF93EC016A017B01B22EE88937
:10400000F98982E08083411581EE580761057105C9
:10401000A1F060E079E08DE390E0A70196010E94B5
:104020004423215031094109510956954795379547
:104030002795211580E1380798F0E889F9891082E1
:1040400060E874E88EE190E0A70196010E944423A5
:1040500021503109410951095695479537952795C2
:10406000EC85FD853083EE85FF852083188EEC89F5
:10407000FD89B082EA89FB89808180618083EA8939
:10408000FB89808188608083EA89FB8980818068E0
:104090008083EA89FB8980818F7D8083DF91CF9146
:1040A000FF90EF90DF90CF90BF900895CF93DF9374
:1040B000EC01E881F9810284F385E02D0995EA8914
:1040C000FB8980818F7E8083EA89FB898081877F5D
:1040D0008083EA89FB8980818F778083EA89FB89E5
:1040E00080818F7D80838A8D898FDF91CF91089524
:1040F0001F920F920FB60F9211242F938F939F93BD
:10410000EF93FF93E0916F05F09170058081E0914E
:104110007505F091760582FD12C090818091780539
:104120008F5F8F7320917905821751F0E0917805A8
:10413000F0E0E15AFA4F958F8093780501C08081B5
:10414000FF91EF919F918F912F910F900FBE0F9044
:104150001F9018951F920F920FB60F9211242F9354
:104160003F934F935F936F937F938F939F93AF93FF
:10417000BF93EF93FF938FE595E00E944C1FFF9153
:10418000EF91BF91AF919F918F917F916F915F91CF
:104190004F913F912F910F900FBE0F901F90189548
:1041A0008FE595E00E94111F21E0892B09F420E0A2
:1041B000822F0895109262051092610588EE93E0B7
:1041C000A0E0B0E08093630590936405A09365053B
:1041D000B09366058CE092E09093600580935F0554
:1041E00085EC90E090936C0580936B0584EC90E0F7
:1041F00090936E0580936D0580EC90E09093700530
:1042000080936F0581EC90E0909372058093710527
:1042100082EC90E0909374058093730586EC90E0B7
:104220009093760580937505109278051092790524
:1042300010927A0510927B050895CF92DF92EF924B
:10424000FF920F931F93CF93DF937C016A01EB01E1
:1042500000E010E00C151D0571F06991D701ED919A
:10426000FC910190F081E02DC7010995892B19F08F
:104270000F5F1F4FEFCFC801DF91CF911F910F91BB
:10428000FF90EF90DF90CF9008950C940904DC012B
:10429000ED91FC910190F081E02D09948F929F9215
:1042A000AF92BF92CF92DF92EF92FF920F931F9344
:1042B000CF93DF93CDB7DEB7A1970FB6F894DEBFEB
:1042C0000FBECDBF7C01C42EE52FCB01D22E19A28B
:1042D00021E02D1510F02AE0D22E8E010F5D1F4F28
:1042E0008D2C912CA12CB12C6C2D7E2FA50194012D
:1042F0000E9444238C2DD29E801911240150110953
:104300008A3014F4805D01C0895CF8018083211536
:1043100031054105510521F0C22EE32FCA01E4CF3A
:10432000B801C7010E940904A1960FB6F894DEBF38
:104330000FBECDBFDF91CF911F910F91FF90EF90F6
:10434000DF90CF90BF90AF909F908F900895CF92C5
:10435000DF92EF92FF920F931F93CF93DF93EC01C5
:104360006A017B012115310579F4E881F981019019
:10437000F081E02D642FDF91CF911F910F91FF907D
:10438000EF90DF90CF9009942A303105E9F477FF60
:104390001AC06DE20E9447218C0144275527BA01BB
:1043A0004C195D096E097F092AE0CE010E944E2159
:1043B000800F911FDF91CF911F910F91FF90EF9090
:1043C000DF90CF9008952AE0B701A601CE01DF91DA
:1043D000CF911F910F91FF90EF90DF90CF900C94B1
:1043E0004E219A01AB01662757FD6095762F0C94FC
:1043F000A7212115310541F4DC01ED91FC910190DB
:10440000F081E02D642F09940C944E2108950E94B0
:10441000211E0E9406220E941601CEE3DFE10E94C7
:10442000BE012097E1F30E943E1FF9CF089540D0CE
:1044300008F481E00895E89409C097FB3EF4909554
:104440008095709561957F4F8F4F9F4F9923A9F06D
:10445000F92F96E9BB279395F695879577956795FC
:10446000B795F111F8CFFAF4BB0F11F460FF1BC040
:104470006F5F7F4F8F4F9F4F16C0882311F096E9D3
:1044800011C0772321F09EE8872F762F05C0662381
:1044900071F096E8862F70E060E02AF09A95660F3A
:1044A000771F881FDAF7880F9695879597F90895F3
:1044B000990F0008550FAA0BE0E8FEEF1616170635
:1044C000E807F907C0F012161306E407F50798F09D
:1044D000621B730B840B950B39F40A2661F0232BB6
:1044E000242B252B21F408950A2609F4A140A69532
:1044F0008FEF811D811D089597F99F6780E870E017
:1045000060E008959FEF80EC089500240A94161649
:10451000170618060906089500240A9412161306B1
:10452000140605060895092E0394000C11F488233F
:1045300052F0BB0F40F4BF2B11F460FF04C06F5F5B
:104540007F4F8F4F9F4F089557FD9058440F551F31
:1045500059F05F3F71F04795880F97FB991F61F005
:104560009F3F79F087950895121613061406551F7C
:10457000F2CF4695F1DF08C0161617061806991FE8
:10458000F1CF86957105610508940895E894BB27DD
:1045900066277727CB0197F908950BD0C4CFB5DFF5
:1045A00028F0BADF18F0952309F0A6CFABCF11247D
:1045B000EECFCADFA0F3959FD1F3950F50E0551FC2
:1045C000629FF001729FBB27F00DB11D639FAA2768
:1045D000F00DB11DAA1F649F6627B00DA11D661FB7
:1045E000829F2227B00DA11D621F739FB00DA11DD8
:1045F000621F839FA00D611D221F749F3327A00D92
:10460000611D231F849F600D211D822F762F6A2F2D
:1046100011249F5750408AF0E1F088234AF0EE0FB2
:10462000FF1FBB1F661F771F881F91505040A9F7BF
:104630009E3F510570F060CFAACF5F3FECF3983EEC
:10464000DCF3869577956795B795F795E7959F5F26
:10465000C1F7FE2B880F911D9695879597F90895C0
:10466000AA1BBB1B51E107C0AA1FBB1FA617B70798
:1046700010F0A61BB70B881F991F5A95A9F78095B4
:104680009095BC01CD010895A1E21A2EAA1BBB1B77
:10469000FD010DC0AA1FBB1FEE1FFF1FA217B3070E
:1046A000E407F50720F0A21BB30BE40BF50B661F24
:1046B000771F881F991F1A9469F7609570958095E8
:1046C00090959B01AC01BD01CF010895052E97FB8C
:1046D0001EF400940E947D2357FD07D00E944423BE
:1046E00007FC03D04EF40C947D23509540953095F3
:1046F00021953F4F4F4F5F4F08959095809570954E
:1047000061957F4F8F4F9F4F0895EE0FFF1F0590CC
:10471000F491E02D0994A29FB001B39FC001A39F23
:10472000700D811D1124911DB29F700D811D1124EA
:10473000911D08950E948B23A59F900DB49F900D0D
:10474000A49F800D911D11240895CF93DF93823093
:10475000910510F482E090E0E091FE05F091FF05F4
:1047600020E030E0A0E0B0E0309739F140815181A5
:1047700048175907B8F04817590771F48281938197
:10478000109729F013969C938E9312972CC09093B8
:10479000FF058093FE0527C02115310531F0421732
:1047A000530718F0A901DB0101C0EF019A01BD0117
:1047B000DF010280F381E02DD7CF21153105F9F01B
:1047C000281B390B2430310580F48A819B816115C7
:1047D000710521F0FB019383828304C09093FF0550
:1047E0008093FE05FE01329644C0FE01E20FF31FE6
:1047F0008193919322503109398328833AC02091C3
:10480000FC053091FD05232B41F4209102013091EC
:1048100003013093FD052093FC05209100013091A8
:1048200001012115310541F42DB73EB74091040136
:1048300050910501241B350BE091FC05F091FD051D
:10484000E217F307A0F42E1B3F0B2817390778F067
:10485000AC014E5F5F4F2417350748F04E0F5F1FC6
:104860005093FD054093FC058193919302C0E0E0D5
:10487000F0E0CF01DF91CF910895CF93DF930097C0
:1048800009F487C0FC01329713821282C091FE05A1
:10489000D091FF05209781F420813181280F391FA5
:1048A0008091FC059091FD058217930779F5F093AF
:1048B000FD05E093FC056DC0DE0120E030E0AE17A1
:1048C000BF0750F412964D915C9113979D014115CD
:1048D000510509F1DA01F3CFB383A28340815181FD
:1048E000840F951F8A179B0771F48D919C911197E6
:1048F000840F951F02969183808312968D919C91CF
:104900001397938382832115310529F4F093FF05D2
:10491000E093FE053EC0D9011396FC93EE931297E7
:104920004D915D91A40FB51FEA17FB0779F48081C3
:104930009181840F951F0296D90111969C938E93B5
:104940008281938113969C938E931297E0E0F0E01E
:104950008A819B81009719F0FE01EC01F9CFCE010D
:10496000029628813981820F931F2091FC05309196
:10497000FD052817390769F4309729F41092FF05CF
:104980001092FE0502C013821282D093FD05C093DF
:10499000FC05DF91CF910895662777270C94432774
:1049A000FC0188279927E89421912032E9F32930E6
:1049B00010F02E30C8F32B3241F02D3239F46894C8
:1049C00004C00E944725820F911D219120532A3057
:1049D000C0F31EF4909581959F4F08959111B6C331
:1049E000803219F089508550D0F70895FB01DC0121
:1049F00004C08D910190801921F441505040C8F7B6
:104A0000881B990B0895FC018191861721F088235A
:104A1000D9F7992708953197CF010895FB01DC015B
:104A20008D91019080190110D9F3990B0895FB0124
:104A3000DC0101900D920020E1F70895FB01DC01FB
:104A40004150504048F001900D920020C9F701C03C
:104A50001D9241505040E0F70895FB0151915523BC
:104A6000A9F0BF01DC014D9145174111E1F759F45F
:104A7000CD010190002049F04D9140154111C9F33D
:104A8000FB014111EFCF81E090E0019708957AE0BA
:104A9000979F902D879F802D910D11240895AEE052
:104AA000B0E0E5E5F5E20C9475290D891E8986E0F4
:104AB0008C831A8309838FEF9FE79E838D83AE01DA
:104AC000475E5F4F6F89788DCE0101960E947125F8
:104AD000EF81F885E00FF11F10822E96E4E00C9430
:104AE0009129ACE0B0E0E7E7F5E20C9467297C019E
:104AF0006B018A01FC0117821682838181FFBDC18F
:104B0000CE0101964C01F7019381F60193FD859149
:104B100093FF81916F01882309F4ABC1853239F489
:104B200093FD859193FF81916F01853229F4B7013F
:104B300090E00E94D728E7CF512C312C20E0203282
:104B4000A0F48B3269F030F4803259F0833269F48A
:104B500020612CC08D3239F0803339F4216026C0B9
:104B60002260246023C0286021C027FD27C030EDCB
:104B7000380F3A3078F426FF06C0FAE05F9E300D19
:104B80001124532E13C08AE0389E300D1124332E89
:104B900020620CC08E3221F426FD6BC1206406C059
:104BA0008C3611F4206802C0883641F4F60193FD7A
:104BB000859193FF81916F018111C1CF982F9F7DC6
:104BC0009554933028F40C5F1F4FFFE3F9830DC019
:104BD000833631F0833771F0833509F05BC022C032
:104BE000F801808189830E5F1F4F44244394512C28
:104BF000540115C03801F2E06F0E711CF801A0805D
:104C0000B18026FF03C0652D70E002C06FEF7FEF1B
:104C1000C5012C870E94CC282C0183012C852F777D
:104C2000222E17C03801F2E06F0E711CF801A0802F
:104C3000B18026FF03C0652D70E002C06FEF7FEFEB
:104C4000C5012C870E94C1282C012C852068222EAA
:104C5000830123FC1BC0832D90E048165906B0F455
:104C6000B70180E290E00E94D7283A94F4CFF50192
:104C700027FC859127FE81915F01B70190E00E949A
:104C8000D72831103A94F1E04F1A510841145104D9
:104C900071F7E5C0843611F0893639F5F80127FF40
:104CA00007C060817181828193810C5F1F4F08C0B2
:104CB00060817181882777FD8095982F0E5F1F4F47
:104CC0002F76B22E97FF09C09095809570956195CB
:104CD0007F4F8F4F9F4F2068B22E2AE030E0A40113
:104CE0000E940929A82EA81844C0853729F42F7ED0
:104CF000B22E2AE030E025C0F22FF97FBF2E8F368A
:104D0000C1F018F4883579F0B4C0803719F08837CD
:104D100021F0AFC02F2F2061B22EB4FE0DC08B2D1D
:104D20008460B82E09C024FF0AC09F2F9660B92E58
:104D300006C028E030E005C020E130E002C020E1FC
:104D400032E0F801B7FE07C06081718182819381F2
:104D50000C5F1F4F06C06081718180E090E00E5FA4
:104D60001F4FA4010E940929A82EA818FB2DFF7728
:104D7000BF2EB6FE0BC02B2D2E7FA51450F4B4FE13
:104D80000AC0B2FC08C02B2D2E7E05C07A2C2B2D1C
:104D900003C07A2C01C0752C24FF0DC0FE01EA0D62
:104DA000F11D8081803311F4297E09C022FF06C0E5
:104DB0007394739404C0822F867809F0739423FD52
:104DC00013C020FF06C05A2C731418F4530C571844
:104DD000732C731468F4B70180E290E02C870E9472
:104DE000D72873942C85F5CF731410F4371801C0AD
:104DF000312C24FF12C0B70180E390E02C870E9481
:104E0000D7282C8522FF17C021FF03C088E590E03A
:104E100002C088E790E0B7010CC0822F867859F075
:104E200021FD02C080E201C08BE227FD8DE2B701C7
:104E300090E00E94D728A51438F4B70180E390E0F1
:104E40000E94D7285A94F7CFAA94F401EA0DF11DD5
:104E50008081B70190E00E94D728A110F5CF3320C0
:104E600009F451CEB70180E290E00E94D7283A942D
:104E7000F6CFF7018681978102C08FEF9FEF2C96C6
:104E8000E2E10C948329A0E0B0E0E9E4F7E20C94BD
:104E90006D298B016115710521F0DB018C93119651
:104EA0009C93EC015E01BFEFAB1ABB0A7501C88091
:104EB0008C2D90E00E94EE24892B11F0E501F2CFB9
:104EC000EDE2CE1208C07E01F2E0EF0EF11CC980C7
:104ED000DD24D39409C02BE2C21205C07E0142E05A
:104EE000E40EF11CC980D12CE701219743E050E08A
:104EF00060E971E0CE010E94A928892BC1F42396B4
:104F000045E050E06BE871E0CE010E94A928892BB2
:104F100009F425960115110519F0D801CD93DC93FC
:104F2000D11006C160E070E080E89FE70AC143E06D
:104F300050E068E871E0CE010E94A928892B59F45D
:104F40000115110509F4F9C0B2E0EB0EF11CF801EE
:104F5000F182E082F2C0F70160E070E0CB01C0E0D6
:104F6000D0E07F01A0EDAA2EAC0C29E02A1530F18B
:104F70004D2D4260B42E2D2D2870D2FE04C021117B
:104F800025C0219623C021112197A5E0B0E09B0107
:104F9000AC010E949A23660F771F881F991F6A0D24
:104FA000711D811D911D6839A9E97A078A07A9E158
:104FB0009A0760F0BD2DB660BB2E08C02EEFA2127E
:104FC0000AC0D3FC50C04D2D4860B42E3196D70195
:104FD000CC90DB2CC6CF2C2D2F7D253409F043C07F
:104FE000A081AD3241F4BD2DB061DB2E7F0122E006
:104FF000E20EF11C0CC07F01AB3231F04FEFE41A2E
:10500000F40A21E030E006C0A2E0EA0EF11CA18122
:1050100022E030E0A053AA3018F0E21AF30A23C0CD
:10502000F70120E030E02038BCE03B075CF4A90148
:10503000440F551F440F551F240F351F220F331FD8
:105040002A0F311DAF014F5F5F4F7A01A081A0533E
:10505000AA3010F4FA01E7CFD4FE03C031952195B0
:105060003109C20FD31FD1FE09C00115110531F05E
:10507000E1E0EE1AF108D801ED92FC920E941B22A9
:105080002D2D2370233019F04B015C0106C04B011C
:105090005C01B7FAB094B7F8B09420E030E0A90111
:1050A000C501B4010E941722882309F43EC0D7FF2E
:1050B00006C0D195C195D10907EA11E002C00FEBF6
:1050C00011E06801B8E1CB1AD10890E2E92EF12C89
:1050D000CE15DF0574F0F801259135914591549175
:1050E000C501B4010E94CD224B015C01CE19DF093C
:1050F000EFCF04501109F594E7940C151D0541F705
:105100008A2D880F8B2D881F8F3F49F020E030E0DB
:10511000A901C501B4010E941722811106C082E2D3
:1051200090E09093010680930006C501B40109C088
:1051300060E070E080E89FEF04C060E070E080EC29
:105140009FE7CDB7DEB7ECE00C9489299927882733
:105150000895FB01DC014150504088F08D9181346D
:105160001CF08B350CF4805E659161341CF06B355E
:105170000CF4605E861B611171F3990B0895881B16
:10518000FCCFFC010590615070400110D8F780956C
:1051900090958E0F9F1F0895FC0161507040019003
:1051A0000110D8F7809590958E0F9F1F08950F934B
:1051B0001F93CF93DF93182F092FEB018B8181FD74
:1051C00003C08FEF9FEF20C082FF10C04E815F8130
:1051D0002C813D81421753077CF4E881F9819F01BE
:1051E0002F5F3F4F39832883108306C0E885F985F8
:1051F000812F0995892B29F72E813F812F5F3F4F02
:105200003F832E83812F902FDF91CF911F910F919C
:105210000895FA01AA27283051F1203181F1E8944C
:105220006F936E7F6E5F7F4F8F4F9F4FAF4FB1E099
:105230003ED0B4E03CD0670F781F891F9A1FA11D94
:10524000680F791F8A1F911DA11D6A0F711D811D95
:10525000911DA11D20D009F468943F912AE0269F5A
:1052600011243019305D3193DEF6CF010895462FB9
:105270004770405D4193B3E00FD0C9F7F6CF462F9A
:105280004F70405D4A3318F0495D31FD4052419303
:1052900002D0A9F7EACFB4E0A695979587957795C0
:1052A0006795BA95C9F700976105710508959B0147
:1052B000AC010A2E06945795479537952795BA95D0
:1052C000C9F7620F731F841F951FA01D08952F92A9
:1052D0003F924F925F926F927F928F929F92AF9286
:1052E000BF92CF92DF92EF92FF920F931F93CF93D3
:1052F000DF93CDB7DEB7CA1BDB0B0FB6F894DEBF6A
:105300000FBECDBF09942A88398848885F846E848F
:105310007D848C849B84AA84B984C884DF80EE80D9
:10532000FD800C811B81AA81B981CE0FD11D0FB6E2
:10533000F894DEBF0FBECDBFED010895F894FFCF06
:10534000000002068000FFFFFFFF016E017301797C
:10535000017F012C200030340D0041544C500D00D1
:1053600025303258253032580D002530325825303E
:1053700032580D0A004154535030300D00415453FF
:105380005025640D004F4B00415452560D003431EE
:105390002000303930320D00303A2034392030329C
:1053A000004154490D004F4244554152540041546C
:1053B0005A0D00415445300D0041544C310D003020
:1053C0003130300D0041540D004154425231200023
:1053D000000000002A071A05E5033B07CD01030280
:1053E000BD025B025703D2012C02B503DD0481022A
:1053F000E606EC038E0473071F04D1017804490408
:105400008504880400000000F1070708F10841083E
:105410004B0822082F00000000001B161D215255CA
:105420004E5F303030302E4C4F470052554E5F2586
:105430003034642E4C4F470000000000B11B841B29
:10544000591B611B741B831B000000008F1F1D2153
:08545000111F2A1F1C1F6D1F14
:00000001FF
